:100000000C9436000C945E000C945E000C945E0020
:100010000C945E000C945E000C945E000C945E00E8
:100020000C945E000C945E000C945E000C945E00D8
:100030000C945E000C945E000C945E000C945E00C8
:100040000C94BB040C945E000C94DC060C940E071C
:100050000C945E000C945E000C945E000C945E00A8
:100060000C945E000C945E0075023E0711241FBEC6
:10007000CFEFD8E0DEBFCDBF12E0A0E0B1E0E0ED11
:10008000F7E102C005900D92AE32B107D9F723E037
:10009000AEE2B2E001C01D92A332B207E1F710E078
:1000A000CCE6D0E004C02297FE010E94E20BC836E5
:1000B000D107C9F70E9482070C94E60B0C9400004C
:1000C0008F929F92AF92BF92CF92DF92EF92FF9268
:1000D0000F931F9382E3882E912CA12CB12C6501E4
:1000E000860175012AE037ED43EA5CE361E070E0E8
:1000F00088E392E00E94AC0226E040E052EC61E02E
:1001000070E086E892E00E947A066EE070E080E09F
:1001100090E00E94340560E071E086E892E00E9481
:10012000EC07E8E3F2E08AE090E0A0E0B0E0808B4A
:10013000918BA28BB38B84879587A687B78768EC52
:1001400070E080E090E01F910F91FF90EF90DF90C2
:10015000CF90BF90AF909F908F900C943405CF922A
:10016000DF92EF92FF920E940505609377027093F1
:1001700078028093790290937A0288E392E00E9459
:100180004F036B017C010E94110520E137E240E042
:1001900050E00E94BE0B683C71058105910570F42A
:1001A0006BE271E086E892E00E94CF0722E030E047
:1001B000B701A60186E892E00E948C09809177023F
:1001C00090917802A0917902B0917A028938934196
:1001D000A105B105A8F080913702811111C060E33B
:1001E00071E086E892E00E94EC07109244021092BF
:1001F0004502109246021092470281E08093370236
:100200008091770290917802A0917902B0917A0260
:1002100081349F41A105B105E8F08091360281113A
:1002200019C064E471E086E892E00E94EC07109245
:1002300048021092490210924A0210924B02109208
:100240005E0210925F02109260021092610281E0E1
:10025000809336028091770290917802A091790282
:10026000B0917A0281319742A105B10588F0809161
:10027000350281110DC068E571E086E892E00E94C8
:10028000EC0788E392E00E94820481E080933502CB
:100290008091770290917802A0917902B0917A02D0
:1002A000813E9E42A105B10588F080913402811102
:1002B0000DC068E671E086E892E00E94EC0788E3F2
:1002C00092E00E94920481E0809334028091770250
:1002D00090917802A0917902B0917A0289399A437B
:1002E000A105B105C8F080913302811115C067E7FF
:1002F00071E086E892E00E94EC0785E090E0A0E0E3
:10030000B0E08093440290934502A0934602B093DC
:10031000470281E0809333028091770290917802C6
:10032000A0917902B0917A0281329E44A105B10573
:1003300038F180913202811123C06BE871E086E8C8
:1003400092E00E94EC0721E02093750282E090E0A9
:10035000A0E0B0E08093440290934502A09346024F
:10036000B093470285E090E0A0E0B0E080934802BF
:1003700090934902A0934A02B0934B022093320219
:100380008091770290917802A0917902B0917A02DF
:10039000853E9745A105B105C8F0809131028111D4
:1003A00015C06DEA71E086E892E00E94EC0782E0F9
:1003B00090E0A0E0B0E08093480290934902A093BF
:1003C0004A02B0934B0281E0809331028091770220
:1003D00090917802A0917902B0917A02893799467A
:1003E000A105B10578F08091300281110BC061EC5C
:1003F00071E086E892E00E94EC071092750281E0BD
:10040000809330028091770290917802A0917902D6
:10041000B0917A0281339547A105B105C0F0809172
:100420002F02811114C066ED71E086E892E00E940F
:10043000EC0781E090E0A0E0B0E08093440290936C
:100440004502A0934602B093470280932F02809109
:10045000770290917802A0917902B0917A0281306E
:100460009D47A105B105C0F080912E02811114C0F5
:100470006AEE71E086E892E00E94EC0781E090E08D
:10048000A0E0B0E08093480290934902A0934A0212
:10049000B0934B0280932E02809177029091780264
:1004A000A0917902B0917A02893B9848A105B105E3
:1004B00030F060E177E280E090E00E94340588E36C
:1004C00092E00E94ED02882331F06DEF71E086E842
:1004D00092E00E94EC0762E070E080E090E0FF9024
:1004E000EF90DF90CF900C94340588E392E00C9469
:1004F000A404FC01DB018D919C91119793A782A725
:1005000012964D915D916D917C91159744A755A7D9
:1005100066A777A716964D915D916D917C9119977D
:1005200040AB51AB62AB73AB1A964D915D916D913F
:100530007C911D9744AB55AB66AB77AB1E968C9107
:100540001E9780AF1E968C9190E0918F808F80E9EE
:1005500091E094AF83AF08958F929F92AF92BF9234
:10056000CF92DF92EF92FF920F931F93CF93DF937F
:10057000CDB7DEB761970FB6F894DEBF0FBECDBF23
:10058000FE013196A1E19A2EDF011D929A94E9F7BE
:100590007A8369832B833C834D835E83EF82F88665
:1005A00009871A87AB86BC86CD86DE868F86BF011B
:1005B0000E94790261960FB6F894DEBF0FBECDBFE0
:1005C000DF91CF911F910F91FF90EF90DF90CF902F
:1005D000BF90AF909F908F9008950F931F93FC0151
:1005E00044855585668577850089118922893389F7
:1005F000401B510B620B730B438F548F658F768FAB
:1006000084A1882309F448C077FF07C070956095DE
:10061000509541955F4F6F4F7F4F02A513A522273D
:1006200017FD2095322F401751076207730774F5A5
:10063000448155816681778100917702109178021B
:100640002091790230917A024115510561057105B9
:1006500039F4048315832683378381E085A31BC087
:10066000041B150B260B370B43AD54AD60E070E057
:10067000401751076207730738F485A1882321F0DA
:1006800081E083A315A207C013A205C013A21482A0
:1006900015821682178283A11F910F9108952F92C0
:1006A0003F924F925F926F927F928F929F92AF9202
:1006B000BF92CF92DF92EF92FF920F931F93CF934F
:1006C000DF9300D000D0CDB7DEB71C01FC0186ADB2
:1006D000882309F4FDC0409177025091780260911F
:1006E000790270917A02C488D588E688F7884C1917
:1006F0005D096E097F09828D481B510961097109E5
:10070000C08CD18CE12CF12CC416D506E606F70678
:1007100008F0D2C084849584A684B7844089518926
:100720006289738924013501441A550A660A770AD9
:10073000438E548E658E768EC78CD0A0E1A0F2A039
:10074000C40CD51CE61CF71CF9EECF16F3E0DF064F
:10075000E104F10434F018EEC12E13E0D12EE12CA7
:10076000F12C08E1C0160CEFD0060FEFE006F00602
:100770003CF4B8E1CB2EBCEFDB2EEE24EA94FE2C49
:10078000F101C78ED0A2E1A2F2A240815181628123
:10079000738193018201041B150B260B370BC901D2
:1007A000B8010E94A30A69837A838B839C83F10139
:1007B0004082518262827382C301B2010E94A30A05
:1007C000F10124A535A546A557A50E94570B2B017D
:1007D0003C01C701B6010E94A30AF10120A931A979
:1007E00042A953A90E94570B9B01AC01C301B2015E
:1007F0000E94A0096B017C01F10124A935A946A939
:1008000057A969817A818B819C810E94570B9B013A
:10081000AC01C701B6010E94A009F10126A137A1D0
:1008200040A551A50E94A0096B017C0120E030E0A9
:1008300048EC52EC0E94040A87FD0FC020E030E033
:1008400048EC52E4B601C7010E94530B181654F449
:10085000C12CD12C98EC82E407C0C12CD12C98EC8F
:1008600082EC02C09E2D8F2DA601692F782FF101F9
:1008700046A357A360A771A74085518562857385FC
:1008800084169506A606B70681F085AD811104C0D1
:1008900016A217A210A611A6F101178E10A211A27E
:1008A00012A280869186A286B3860E940505F10178
:1008B000648B758B868B978B20E030E048EC52E49C
:1008C000F10166A177A180A591A50E94080A03C045
:1008D00060E070E0CB010F900F900F900F90DF91D0
:1008E000CF911F910F91FF90EF90DF90CF90BF902D
:1008F000AF909F908F907F906F905F904F903F90C0
:100900002F900895FC014089518962897389448739
:1009100055876687778716A217A210A611A616AE6E
:1009200014A20895FC0181E086AF84A385A34089C9
:10093000518962897389448755876687778716A2AC
:1009400017A210A611A60895FC0116A217A210A6C0
:1009500011A6148A158A168A178A81E086AF84A3A5
:1009600080917B0290917C02059690937C0280930B
:100970007B02828F08951F920F920FB60F9211245F
:100980002F933F938F939F93AF93BF9380917E025A
:1009900090917F02A0918002B091810230917D02FE
:1009A00023E0230F2D3720F40196A11DB11D05C0B2
:1009B00026E8230F0296A11DB11D20937D0280938E
:1009C0007E0290937F02A0938002B0938102809177
:1009D000820290918302A0918402B09185020196D7
:1009E000A11DB11D8093820290938302A093840283
:1009F000B0938502BF91AF919F918F913F912F91BD
:100A00000F900FBE0F901F9018952FB7F89460911C
:100A10007E0270917F0280918002909181022FBFAF
:100A200008953FB7F8948091820290918302A0913B
:100A30008402B091850226B5A89B05C02F3F19F00E
:100A40000196A11DB11D3FBF6627782F892F9A2FD0
:100A5000620F711D811D911D42E0660F771F881F77
:100A6000991F4A95D1F70895CF92DF92EF92FF92A6
:100A7000CF93DF936B017C010E941105EB01C11440
:100A8000D104E104F10489F00E949E090E9411053D
:100A90006C1B7D0B683E734090F381E0C81AD1084F
:100AA000E108F108C851DC4FEACFDF91CF91FF9008
:100AB000EF90DF90CF900895789484B5826084BDE4
:100AC00084B5816084BD85B5826085BD85B5816052
:100AD00085BDEEE6F0E0808181608083E1E8F0E0B2
:100AE0001082808182608083808181608083E0E8E1
:100AF000F0E0808181608083E1EBF0E080818460C0
:100B00008083E0EBF0E0808181608083EAE7F0E0C1
:100B10008081846080838081826080838081816025
:100B200080838081806880831092C1000895FC01D9
:100B3000818D228D90E0805C9F4F821B91098F7385
:100B400099270895FC01918D828D981731F0828D3F
:100B5000E80FF11D858D90E008958FEF9FEF0895C8
:100B6000FC01918D828D981761F0828DDF01A80FB5
:100B7000B11D5D968C91928D9F5F9F73928F90E0D7
:100B800008958FEF9FEF089584E397E0892B49F054
:100B900080E090E0892B29F00E94340781110C94A9
:100BA00000000895FC01848DDF01A80FB11DA35A38
:100BB000BF4F2C91848D90E001968F739927848F7D
:100BC000A689B7892C93A089B1898C9180648C9374
:100BD000938D848D981306C00288F389E02D80815F
:100BE0008F7D80830895CF93DF93EC01888D8823D8
:100BF000C9F0EA89FB89808185FD05C0A889B9898A
:100C00008C9186FD0FC00FB607FCF5CF808185FF64
:100C1000F2CFA889B9898C9185FFEDCFCE010E94D2
:100C2000D205E7CFDF91CF910895CF92DF92FF9267
:100C30000F931F93CF93DF931F92CDB7DEB76C0155
:100C4000DC015B969C915B975C968C915C9798130A
:100C500007C05096ED91FC915197808185FD32C07F
:100C6000F601038D10E00F5F1F4F0F731127F02E59
:100C7000F601848DF81211C00FB607FCF9CFD6012A
:100C80005096ED91FC915197808185FFF1CFC6017F
:100C900069830E94D2056981EBCF838DE80FF11D36
:100CA000E35AFF4F6083D6015B960C935B97529695
:100CB000ED91FC91539780818062808381E058960A
:100CC0008C930DC0D6015696ED91FC915797608399
:100CD0005096ED91FC91519780818064808381E0F2
:100CE00090E00F90DF91CF911F910F91FF90DF90D7
:100CF000CF900895BF92CF92DF92EF92FF92CF9361
:100D0000DF93EC016A017B01B22EE889F98982E068
:100D10008083411581EE580761057105A1F060E0FF
:100D200079E08DE390E0A70196010E94BE0B21506F
:100D30003109410951095695479537952795211550
:100D400080E1380798F0E889F989108260E874E852
:100D50008EE190E0A70196010E94BE0B215031095F
:100D6000410951095695479537952795EC85FD859D
:100D70003083EE85FF852083188EEC89FD89B08253
:100D8000EA89FB89808180618083EA89FB8980818F
:100D900088608083EA89FB89808180688083EA8912
:100DA000FB8980818F7D8083DF91CF91FF90EF90D1
:100DB000DF90CF90BF9008951F920F920FB60F92C1
:100DC00011242F938F939F93EF93FF93E0919602BB
:100DD000F09197028081E0919C02F0919D0282FD4A
:100DE00012C0908180919F028F5F8F732091A0022B
:100DF000821751F0E0919F02F0E0EA57FD4F958F86
:100E000080939F0201C08081FF91EF919F918F910C
:100E10002F910F900FBE0F901F9018951F920F9259
:100E20000FB60F9211242F933F934F935F936F93BD
:100E30007F938F939F93AF93BF93EF93FF9386E836
:100E400092E00E94D205FF91EF91BF91AF919F91E7
:100E50008F917F916F915F914F913F912F910F9063
:100E60000FBE0F901F90189586E892E00E9497059C
:100E700021E0892B09F420E0822F08951092890245
:100E80001092880288EE93E0A0E0B0E080938A029E
:100E900090938B02A0938C02B0938D0284E192E038
:100EA000909387028093860285EC90E09093930262
:100EB0008093920284EC90E0909395028093940248
:100EC00080EC90E0909397028093960281EC90E002
:100ED000909399028093980282EC90E090939B0209
:100EE00080939A0286EC90E090939D0280939C02FE
:100EF00010929F021092A0021092A1021092A202E0
:100F0000089508950E945C050E9481070E94600078
:100F1000C4ECD5E00E94AF002097E1F30E94C40525
:100F2000F9CFCF92DF92EF92FF920F931F93CF935F
:100F3000DF936C017A01EB01E60EF71E00E010E092
:100F4000CE15DF0561F06991D601ED91FC9101901C
:100F5000F081E02DC6010995080F191FF1CFC801D6
:100F6000DF91CF911F910F91FF90EF90DF90CF9085
:100F700008956115710581F0DB010D900020E9F7FE
:100F8000AD0141505109461B570BDC01ED91FC911D
:100F90000280F381E02D099480E090E008950C94A4
:100FA000B907DC01ED91FC910190F081E02D0994ED
:100FB0000F931F93CF93DF93EC016DE00E94D10755
:100FC0008C016AE0CE010E94D107800F911FDF9152
:100FD000CF911F910F9108950F931F93CF93DF939C
:100FE000EC010E94B9078C01CE010E94D807800F46
:100FF000911FDF91CF911F910F9108958F929F9232
:10100000AF92BF92CF92DF92EF92FF920F931F9316
:10101000CF93DF93CDB7DEB7A1970FB6F894DEBFBD
:101020000FBECDBF7C01C42EE52FCB01D22E19A25D
:1010300021E02D1510F02AE0D22E8E010F5D1F4FFA
:101040008D2C912CA12CB12C6C2D7E2FA5019401FF
:101050000E94BE0B8C2DD29E8019112401501109C3
:101060008A3014F4805D01C0895CF8018083211509
:1010700031054105510521F0C22EE32FCA01E4CF0D
:10108000B801C7010E94B907A1960FB6F894DEBF58
:101090000FBECDBFDF91CF911F910F91FF90EF90C9
:1010A000DF90CF90BF90AF909F908F900895CF9298
:1010B000DF92EF92FF920F931F93CF93DF93EC0198
:1010C0006A017B012115310579F4E881F9810190EC
:1010D000F081E02D642FDF91CF911F910F91FF9050
:1010E000EF90DF90CF9009942A303105E9F477FF33
:1010F0001AC06DE20E94D1078C0144275527BA011E
:101100004C195D096E097F092AE0CE010E94FE0795
:10111000800F911FDF91CF911F910F91FF90EF9062
:10112000DF90CF9008952AE0B701A601CE01DF91AC
:10113000CF911F910F91FF90EF90DF90CF900C9483
:10114000FE074F925F926F927F928F929F92AF9223
:10115000BF92CF92DF92EF92FF920F931F93CF93A4
:10116000DF93EC016A017B01B22E9A01AB01C7014A
:10117000B6010E94BA0B882319F060E272E027C022
:1011800026013701E89477F82FEF3FEF4FE75FE74D
:10119000C301B2010E94BA0B81110DC02FEF3FEFC6
:1011A0004FE75FE7C301B2010E94040A18161CF45E
:1011B00064E272E00CC02FEF3FEF4FE75FE4C7013E
:1011C000B6010E94530B1816ACF468E272E0CE012F
:1011D000DF91CF911F910F91FF90EF90DF90CF9013
:1011E000BF90AF909F908F907F906F905F904F9047
:1011F0000C94B9072FEF3FEF4FE75FECC701B60143
:101200000E94040A87FDE1CF20E030E0A901C70178
:10121000B6010E94040A87FF0AC06DE2CE010E9457
:10122000D1078C01F7FAF094F7F8F09402C000E0CF
:1012300010E0A12C60E070E080E09FE3AB1441F08F
:1012400020E030E040E251E40E94080AA394F6CF87
:101250009B01AC01C701B6010E94A0096B017C0192
:101260000E94750A2B013C010E94A10A9B01AC015E
:10127000C701B6010E949F096B017C012AE0B301FE
:10128000A201CE010E94FE07080F191FBB2039F0F2
:101290006CE272E0CE010E94B907080F191F7B2C87
:1012A000772041F120E030E040E251E4C701B6018F
:1012B0000E94570B6B017C010E94700A4B01AA240B
:1012C00097FCA094BA2C2AE030E0B501A401CE012D
:1012D0000E945708080F191FC501B4010E94A30AF4
:1012E0009B01AC01C701B6010E949F096B017C0103
:1012F0007A94D6CFC801DF91CF911F910F91FF90C3
:10130000EF90DF90CF90BF90AF909F908F907F90A5
:101310006F905F904F9008950F931F93CF93DF933B
:10132000EC010E94A1088C01CE010E94D807800F19
:10133000911FDF91CF911F910F91089508955058FB
:10134000BB27AA270ED075C166D130F06BD120F033
:1013500031F49F3F11F41EF45BC10EF4E095E7FBFE
:1013600051C1E92F77D180F3BA1762077307840759
:10137000950718F071F49EF58FC10EF4E0950B2ED1
:10138000BA2FA02D0B01B90190010C01CA01A001D7
:101390001124FF27591B99F0593F50F4503E68F132
:1013A0001A16F040A22F232F342F4427585FF3CF73
:1013B000469537952795A795F0405395C9F77EF444
:1013C0001F16BA0B620B730B840BBAF09150A1F08D
:1013D000FF0FBB1F661F771F881FC2F70EC0BA0F13
:1013E000621F731F841F48F4879577956795B7959B
:1013F000F7959E3F08F0B3CF9395880F08F0992793
:10140000EE0F979587950895D9D008F481E0089557
:101410000CD00FC107D140F0FED030F021F45F3F77
:1014200019F0F0C0511139C1F3C014D198F39923C8
:10143000C9F35523B1F3951B550BBB27AA27621798
:101440007307840738F09F5F5F4F220F331F441FDD
:10145000AA1FA9F333D00E2E3AF0E0E830D0915015
:101460005040E695001CCAF729D0FE2F27D0660F02
:10147000771F881FBB1F261737074807AB07B0E841
:1014800009F0BB0B802DBF01FF2793585F4F2AF057
:101490009E3F510568F0B6C000C15F3FECF3983E37
:1014A000DCF3869577956795B795F7959F5FC9F7B4
:1014B000880F911D9695879597F90895E1E0660F3D
:1014C000771F881FBB1F621773078407BA0720F0B6
:1014D000621B730B840BBA0BEE1F88F7E09508951F
:1014E00004D06894B111D9C00895BCD088F09F573A
:1014F00090F0B92F9927B751A0F0D1F0660F771F60
:10150000881F991F1AF0BA95C9F712C0B13081F03F
:10151000C3D0B1E00895C0C0672F782F8827B85F87
:1015200039F0B93FCCF3869577956795B395D9F7A0
:101530003EF490958095709561957F4F8F4F9F4FAA
:101540000895E89409C097FB3EF4909580957095B6
:1015500061957F4F8F4F9F4F9923A9F0F92F96E9FF
:10156000BB279395F695879577956795B795F11174
:10157000F8CFFAF4BB0F11F460FF1BC06F5F7F4F11
:101580008F4F9F4F16C0882311F096E911C0772323
:1015900021F09EE8872F762F05C0662371F096E82C
:1015A000862F70E060E02AF09A95660F771F881FFB
:1015B000DAF7880F9695879597F90895990F00089F
:1015C000550FAA0BE0E8FEEF16161706E807F90715
:1015D000C0F012161306E407F50798F0621B730BB0
:1015E000840B950B39F40A2661F0232B242B252B31
:1015F00021F408950A2609F4A140A6958FEF811DD4
:10160000811D089597F99F6780E870E060E0089574
:101610009FEF80EC089500240A941616170618060A
:101620000906089500240A941216130614060506E6
:101630000895092E0394000C11F4882352F0BB0F77
:1016400040F4BF2B11F460FF04C06F5F7F4F8F4FDA
:101650009F4F089557FD9058440F551F59F05F3F15
:1016600071F04795880F97FB991F61F09F3F79F0C4
:1016700087950895121613061406551FF2CF469546
:10168000F1DF08C0161617061806991FF1CF8695C8
:101690007105610508940895E894BB2766277727AC
:1016A000CB0197F908958ADF08F48FEF08950BD0E6
:1016B000C0CFB1DF28F0B6DF18F0952309F0A2CF34
:1016C000A7CF1124EACFC6DFA0F3959FD1F3950FE2
:1016D00050E0551F629FF001729FBB27F00DB11DB6
:1016E000639FAA27F00DB11DAA1F649F6627B00D46
:1016F000A11D661F829F2227B00DA11D621F739F2F
:10170000B00DA11D621F839FA00D611D221F749F3C
:101710003327A00D611D231F849F600D211D822F83
:10172000762F6A2F11249F5750408AF0E1F08823CA
:101730004AF0EE0FFF1FBB1F661F771F881F9150D7
:101740005040A9F79E3F510570F05CCFA6CF5F3F98
:10175000ECF3983EDCF3869577956795B795F7950A
:10176000E7959F5FC1F7FE2B880F911D9695879592
:1017700097F9089523DF880B990B0895A1E21A2E9B
:10178000AA1BBB1BFD010DC0AA1FBB1FEE1FFF1F25
:10179000A217B307E407F50720F0A21BB30BE40B75
:1017A000F50B661F771F881F991F1A9469F76095BC
:1017B0007095809590959B01AC01BD01CF01089576
:1017C000EE0FFF1F0590F491E02D0994F894FFCFE0
:1017D00053657474696E6720706F736974696F6E96
:1017E00020746F2031302E302C20536574706F6957
:1017F0006E7420746F2031302E30005049443A000E
:101800002A2A2A2A2A2A2A536574706F696E74203C
:10181000302E30002A2A2A2A2A2A2A506F73697405
:10182000696F6E20302E30002A2A2A2A2A2A2A445A
:10183000697361626C6564002A2A2A2A2A2A2A4569
:101840006E61626C6564002A2A2A2A2A2A2A536554
:1018500074706F696E7420352E30002A2A2A2A2A65
:101860002A2A536D6F6F7468696E67204F6E2C2043
:10187000536574706F696E7420322E30002A2A2AE4
:101880002A2A2A2A506F736974696F6E20322E30AB
:10189000002A2A2A2A2A2A2A536D6F6F7468696ED1
:1018A00067204F6666002A2A2A2A2A2A2A53657444
:1018B000706F696E7420312E39002A2A2A2A2A2A4A
:1018C0002A506F736974696F6E312E39002A2A2A83
:1018D0002A2A2A2A232323232323232323232300DF
:1018E00000000000150691079705B005A205F30555
:0E18F0006E616E00696E66006F7666002E00F7
:00000001FF
