:100000000C9436000C945E000C945E000C945E0020
:100010000C945E000C945E000C945E000C945E00E8
:100020000C945E000C945E000C945E000C945E00D8
:100030000C945E000C945E000C945E000C945E00C8
:100040000C94C4020C945E000C94D9040C940B051F
:100050000C945E000C945E000C945E000C945E00A8
:100060000C945E000C945E003F023B0511241FBE01
:10007000CFEFD8E0DEBFCDBF11E0A0E0B1E0ECE013
:10008000F4E102C005900D92AE39B107D9F722E034
:10009000AEE9B1E001C01D92AA38B207E1F710E065
:1000A000CCE6D0E004C02297FE010E94DD09C836EC
:1000B000D107C9F70E947F050C94040A0C94000034
:1000C000CF92DF92EF92FF920F931F93CF93DF9324
:1000D00000D0CDB7DEB76C018B017C0181E1E80E69
:1000E000F11CC60169837A830E94EE09F8018193AD
:1000F0008F01FFEFCF1ADF0A69817A81CE14DF0406
:1001000081F7CB010F900F90DF91CF911F910F914D
:10011000FF90EF90DF90CF9008950895EF92FF92B7
:100120000F931F93CF93DF93CDB7DEB761970FB6D1
:10013000F894DEBF0FBECDBF7C018091DF01882324
:10014000D9F0F70107851089C801029681309440E3
:1001500098F4BE016F5F7F4FC8010E94600081E18B
:10016000FE013196D70101900D928A95E1F7F701D2
:10017000108B0787C80102C080E090E061960FB63F
:10018000F894DEBF0FBECDBFDF91CF911F910F91CD
:10019000FF90EF9008957F928F929F92AF92BF92BF
:1001A000CF92DF92EF92FF920F931F93CF93DF9343
:1001B000CDB7DEB7A2970FB6F894DEBF0FBECDBFA6
:1001C0008A8A9B8AAC8ABD8ACE8ADF8AE88EF98EBB
:1001D0000A8F1B8F2C8F3D8F4E8F5F8F68A379A363
:1001E0008AA38091DF018823A1F1C9A0DAA0C6010A
:1001F00041968130944068F58E010E5E1F4F5E017E
:1002000083E2A80EB11C7601702E812EF801919028
:100210008F01C7010E94EE09981621F0692DC701D0
:100220000E94F609FFEFEF1AFF0A0A151B0571F786
:10023000BE016F5F7F4FC6010E94600041E150E048
:10024000672D782DCE0101960E94E10921E0892BCE
:1002500009F020E0822FA2960FB6F894DEBF0FBE01
:10026000CDBFDF91CF911F910F91FF90EF90DF9065
:10027000CF90BF90AF909F908F907F9008956F9296
:100280007F928F929F92AF92BF92CF92DF92EF9226
:10029000FF920F931F93CF93DF938DEE91E00E9417
:1002A00043028EE991E00E94510226E040E052ECC8
:1002B00061E070E08DEE91E00E9477046EE170E005
:1002C00080E090E00E94310360E071E08DEE91E00B
:1002D0000E94E70568E171E08DEE91E00E94E7057C
:1002E0008AEC682E81E0782EF30140815181628191
:1002F000738122E030E08DEE91E00E948707C8EC28
:10030000D1E088809980AA80BB80CC80DD80EE809F
:10031000FF80088519852A853B854C855D856E851E
:100320007F8588890E94CB0067E271E08DEE91E0C5
:100330000E94E705F301408151816281738122E0CF
:1003400030E08DEE91E00E94870780E090E0A0E42D
:10035000B0E4F30180839183A283B38380E090E0D3
:10036000A0E1B1E48093CE019093CF01A093D0019E
:10037000B093D10180E090E0A0E0B1E48093D2019D
:100380009093D301A093D401B093D50162E371E0BF
:100390008DEE91E00E94E705F30140815181628179
:1003A000738122E030E08DEE91E00E948707CE015C
:1003B0000E948E0061E471E08DEE91E00E94E705FD
:1003C000F301408151816281738122E030E08DEE42
:1003D00091E00E948707EEE9F1E080E090E0A0E084
:1003E000B0E484A795A7A6A7B7A784AB95ABA6ABA7
:1003F000B7AB62E571E08DEE91E00E94E705F30195
:10040000408151816281738122E030E08DEE91E084
:100410000E94870788809980AA80BB80CC80DD807D
:10042000EE80FF80088519852A853B854C855D8592
:100430006E857F8588890E94CB00CE010E948E0048
:1004400065E671E08DEE91E00E94E705F3014081E1
:1004500051816281738122E030E08DEE91E0DF9185
:10046000CF911F910F91FF90EF90DF90CF90BF90B1
:10047000AF909F908F907F906F900C9487078EE93C
:1004800091E00C94AD029093DE018093DD0184E154
:1004900090E09093E1018093E00181E08093DF019F
:1004A00008956F927F928F929F92AF92BF92CF9258
:1004B000DF92EF92FF920F931F93CF93DF93CDB70D
:1004C000DEB761970FB6F894DEBF0FBECDBF5C01FB
:1004D0008091DF01882361F1E090E001F090E1017B
:1004E000CE0101966C014E0192E1890E911C8601AC
:1004F00037016C187D08C301800F911F0E94EE091F
:10050000F80181938F01E815F905A9F781E1F6015A
:10051000D5019A9601900D928A95E1F7F501F2AE18
:10052000E1AEF1E1EF0EF11CF092E101E092E001A9
:1005300061960FB6F894DEBF0FBECDBFDF91CF91AD
:100540001F910F91FF90EF90DF90CF90BF90AF90F1
:100550009F908F907F906F900895FC0116A217A234
:1005600010A611A6148A158A168A178A81E086AF0A
:1005700084A38091E2019091E30105969093E301B9
:100580008093E201828F08951F920F920FB60F920F
:1005900011242F933F938F939F93AF93BF93809199
:1005A000E5019091E601A091E701B091E801309159
:1005B000E40123E0230F2D3720F40196A11DB11D86
:1005C00005C026E8230F0296A11DB11D2093E4016A
:1005D0008093E5019093E601A093E701B093E801D1
:1005E0008091E9019091EA01A091EB01B091EC01B9
:1005F0000196A11DB11D8093E9019093EA01A0939A
:10060000EB01B093EC01BF91AF919F918F913F911E
:100610002F910F900FBE0F901F9018953FB7F89431
:100620008091E9019091EA01A091EB01B091EC0178
:1006300026B5A89B05C02F3F19F00196A11DB11D3D
:100640003FBF6627782F892F9A2F620F711D811D5A
:10065000911D42E0660F771F881F991F4A95D1F7B9
:100660000895CF92DF92EF92FF92CF93DF936B01C9
:100670007C010E940E03EB01C114D104E104F104DA
:1006800089F00E9499070E940E036C1B7D0B683E47
:10069000734090F381E0C81AD108E108F108C8510D
:1006A000DC4FEACFDF91CF91FF90EF90DF90CF90BA
:1006B0000895789484B5826084BD84B5816084BDDA
:1006C00085B5826085BD85B5816085BDEEE6F0E0CB
:1006D000808181608083E1E8F0E010828081826027
:1006E0008083808181608083E0E8F0E080818160A8
:1006F0008083E1EBF0E0808184608083E0EBF0E0D8
:10070000808181608083EAE7F0E08081846080837B
:100710008081826080838081816080838081806825
:1007200080831092C1000895FC01818D228D90E09C
:10073000805C9F4F821B91098F7399270895FC015C
:10074000918D828D981731F0828DE80FF11D858D86
:1007500090E008958FEF9FEF0895FC01918D828DB9
:10076000981761F0828DDF01A80FB11D5D968C9105
:10077000928D9F5F9F73928F90E008958FEF9FEF10
:10078000089581E395E0892B49F080E090E0892B82
:1007900029F00E94310581110C9400000895FC019C
:1007A000848DDF01A80FB11DA35ABF4F2C91848DFA
:1007B00090E001968F739927848FA689B7892C932F
:1007C000A089B1898C9180648C93938D848D9813CA
:1007D00006C00288F389E02D80818F7D8083089593
:1007E000CF93DF93EC01888D8823C9F0EA89FB89D8
:1007F000808185FD05C0A889B9898C9186FD0FC0CF
:100800000FB607FCF5CF808185FFF2CFA889B989A3
:100810008C9185FFEDCFCE010E94CF03E7CFDF9112
:10082000CF910895CF92DF92FF920F931F93CF93B2
:10083000DF931F92CDB7DEB76C01DC015B969C9114
:100840005B975C968C915C97981307C05096ED91DE
:10085000FC915197808185FD32C0F601038D10E037
:100860000F5F1F4F0F731127F02EF601848DF812C2
:1008700011C00FB607FCF9CFD6015096ED91FC914F
:100880005197808185FFF1CFC60169830E94CF0314
:100890006981EBCF838DE80FF11DE35AFF4F608331
:1008A000D6015B960C935B975296ED91FC91539712
:1008B00080818062808381E058968C930DC0D60140
:1008C0005696ED91FC91579760835096ED91FC916F
:1008D000519780818064808381E090E00F90DF9168
:1008E000CF911F910F91FF90DF90CF900895BF920D
:1008F000CF92DF92EF92FF92CF93DF93EC016A01E8
:100900007B01B22EE889F98982E08083411581EE6E
:10091000580761057105A1F060E079E08DE390E092
:10092000A70196010E94B9092150310941095109D5
:100930005695479537952795211580E1380798F00A
:10094000E889F989108260E874E88EE190E0A701F7
:1009500096010E94B9092150310941095109569562
:10096000479537952795EC85FD853083EE85FF8586
:100970002083188EEC89FD89B082EA89FB89808109
:1009800080618083EA89FB89808188608083EA892D
:10099000FB89808180688083EA89FB8980818F7DE3
:1009A0008083DF91CF91FF90EF90DF90CF90BF9049
:1009B00008951F920F920FB60F9211242F938F93C9
:1009C0009F93EF93FF93E091FD01F091FE018081F1
:1009D000E0910302F091040282FD12C090818091A7
:1009E00006028F5F8F7320910702821751F0E0910A
:1009F0000602F0E0E351FE4F958F8093060201C09E
:100A00008081FF91EF919F918F912F910F900FBE59
:100A10000F901F9018951F920F920FB60F921124EE
:100A20002F933F934F935F936F937F938F939F93F6
:100A3000AF93BF93EF93FF938DEE91E00E94CF03AE
:100A4000FF91EF91BF91AF919F918F917F916F91A6
:100A50005F914F913F912F910F900FBE0F901F907C
:100A600018958DEE91E00E94940321E0892B09F402
:100A700020E0822F08951092F0011092EF0188EE8D
:100A800093E0A0E0B0E08093F1019093F201A09395
:100A9000F301B093F40183E891E09093EE01809329
:100AA000ED0185EC90E09093FA018093F90184ECDC
:100AB00090E09093FC018093FB0180EC90E0909398
:100AC000FE018093FD0181EC90E090930002809301
:100AD000FF0182EC90E0909302028093010286EC89
:100AE00090E0909304028093030210920602109209
:100AF00007021092080210920902089508950E94B8
:100B000059030E947E050E943F01C1ECD3E00E9480
:100B10008D002097E1F30E94C103F9CFCF92DF92BD
:100B2000EF92FF920F931F93CF93DF936C017A01A3
:100B3000EB01E60EF71E00E010E0CE15DF0561F0D8
:100B40006991D601ED91FC910190F081E02DC601F3
:100B50000995080F191FF1CFC801DF91CF911F919F
:100B60000F91FF90EF90DF90CF9008956115710580
:100B700081F0DB010D900020E9F7AD0141505109F2
:100B8000461B570BDC01ED91FC910280F381E02DB7
:100B9000099480E090E00895DC01ED91FC910190D2
:100BA000F081E02D09940F931F93CF93DF93EC0115
:100BB0006DE00E94CC058C016AE0CE010E94CC055C
:100BC000800F911FDF91CF911F910F9108950F9387
:100BD0001F93CF93DF93EC010E94B6058C01CE01E9
:100BE0000E94D305800F911FDF91CF911F910F912C
:100BF00008958F929F92AF92BF92CF92DF92EF9221
:100C0000FF920F931F93CF93DF93CDB7DEB7A197DA
:100C10000FB6F894DEBF0FBECDBF7C01C42EE52F0A
:100C2000CB01D22E19A221E02D1510F02AE0D22EF0
:100C30008E010F5D1F4F8D2C912CA12CB12C6C2D92
:100C40007E2FA50194010E94B9098C2DD29E801996
:100C50001124015011098A3014F4805D01C0895CAF
:100C6000F8018083211531054105510521F0C22E7F
:100C7000E32FCA01E4CFB801C7010E94B605A196CF
:100C80000FB6F894DEBF0FBECDBFDF91CF911F919D
:100C90000F91FF90EF90DF90CF90BF90AF909F901B
:100CA0008F900895CF92DF92EF92FF920F931F9350
:100CB000CF93DF93EC016A017B012115310579F4B3
:100CC000E881F9810190F081E02D642FDF91CF91CF
:100CD0001F910F91FF90EF90DF90CF9009942A30F1
:100CE0003105E9F477FF1AC06DE20E94CC058C0152
:100CF00044275527BA014C195D096E097F092AE07E
:100D0000CE010E94F905800F911FDF91CF911F91B5
:100D10000F91FF90EF90DF90CF9008952AE0B701F8
:100D2000A601CE01DF91CF911F910F91FF90EF901F
:100D3000DF90CF900C94F9054F925F926F927F9263
:100D40008F929F92AF92BF92CF92DF92EF92FF92DB
:100D50000F931F93CF93DF93EC016A017B01B22EB7
:100D60009A01AB01C701B6010E94B509882319F0A9
:100D70006FE871E027C026013701E89477F82FEF7C
:100D80003FEF4FE75FE7C301B2010E94B509811150
:100D90000DC02FEF3FEF4FE75FE7C301B2010E94A5
:100DA000FF0718161CF463E971E00CC02FEF3FEF4A
:100DB0004FE75FE4C701B6010E944E091816ACF474
:100DC00067E971E0CE01DF91CF911F910F91FF9004
:100DD000EF90DF90CF90BF90AF909F908F907F90DB
:100DE0006F905F904F900C94B6052FEF3FEF4FE759
:100DF0005FECC701B6010E94FF0787FDE1CF20E04D
:100E000030E0A901C701B6010E94FF0787FF0AC0B1
:100E10006DE2CE010E94CC058C01F7FAF094F7F850
:100E2000F09402C000E010E0A12C60E070E080E0EF
:100E30009FE3AB1441F020E030E040E251E40E9437
:100E40000308A394F6CF9B01AC01C701B6010E9431
:100E50009B076B017C010E9470082B013C010E94E2
:100E60009C089B01AC01C701B6010E949A076B0167
:100E70007C012AE0B301A201CE010E94F905080F0E
:100E8000191FBB2039F06BE971E0CE010E94B60555
:100E9000080F191F7B2C772041F120E030E040E261
:100EA00051E4C701B6010E9452096B017C010E9406
:100EB0006B084B01AA2497FCA094BA2C2AE030E0DE
:100EC000B501A401CE010E945206080F191FC501E9
:100ED000B4010E949E089B01AC01C701B6010E94AB
:100EE0009A076B017C017A94D6CFC801DF91CF912C
:100EF0001F910F91FF90EF90DF90CF90BF90AF9038
:100F00009F908F907F906F905F904F9008950F9378
:100F10001F93CF93DF93EC010E949C068C01CE01BE
:100F20000E94D305800F911FDF91CF911F910F91E8
:100F3000089508955058BB27AA270ED075C166D1D1
:100F400030F06BD120F031F49F3F11F41EF45BC1FF
:100F50000EF4E095E7FB51C1E92F77D180F3BA1782
:100F6000620773078407950718F071F49EF58FC127
:100F70000EF4E0950B2EBA2FA02D0B01B9019001B4
:100F80000C01CA01A0011124FF27591B99F0593FF8
:100F900050F4503E68F11A16F040A22F232F342F40
:100FA0004427585FF3CF469537952795A795F0408E
:100FB0005395C9F77EF41F16BA0B620B730B840BA3
:100FC000BAF09150A1F0FF0FBB1F661F771F881F5B
:100FD000C2F70EC0BA0F621F731F841F48F48795B3
:100FE00077956795B795F7959E3F08F0B3CF9395A2
:100FF000880F08F09927EE0F979587950895D9D017
:1010000008F481E008950CD00FC107D140F0FED064
:1010100030F021F45F3F19F0F0C0511139C1F3C035
:1010200014D198F39923C9F35523B1F3951B550BAC
:10103000BB27AA2762177307840738F09F5F5F4FAB
:10104000220F331F441FAA1FA9F333D00E2E3AF0EC
:10105000E0E830D091505040E695001CCAF729D006
:10106000FE2F27D0660F771F881FBB1F2617370755
:101070004807AB07B0E809F0BB0B802DBF01FF2785
:1010800093585F4F2AF09E3F510568F0B6C000C1EB
:101090005F3FECF3983EDCF3869577956795B795BF
:1010A000F7959F5FC9F7880F911D9695879597F9DA
:1010B0000895E1E0660F771F881FBB1F6217730753
:1010C0008407BA0720F0621B730B840BBA0BEE1F68
:1010D00088F7E095089504D06894B111D9C00895B7
:1010E000BCD088F09F5790F0B92F9927B751A0F046
:1010F000D1F0660F771F881F991F1AF0BA95C9F7AC
:1011000012C0B13081F0C3D0B1E00895C0C0672FE4
:10111000782F8827B85F39F0B93FCCF3869577955B
:101120006795B395D9F73EF4909580957095619544
:101130007F4F8F4F9F4F0895E89409C097FB3EF46F
:1011400090958095709561957F4F8F4F9F4F992314
:10115000A9F0F92F96E9BB279395F6958795779592
:101160006795B795F111F8CFFAF4BB0F11F460FF52
:101170001BC06F5F7F4F8F4F9F4F16C0882311F0AA
:1011800096E911C0772321F09EE8872F762F05C0BE
:10119000662371F096E8862F70E060E02AF09A9559
:1011A000660F771F881FDAF7880F9695879597F94E
:1011B0000895990F0008550FAA0BE0E8FEEF1616E8
:1011C0001706E807F907C0F012161306E407F5073B
:1011D00098F0621B730B840B950B39F40A2661F0AF
:1011E000232B242B252B21F408950A2609F4A14052
:1011F000A6958FEF811D811D089597F99F6780E85F
:1012000070E060E008959FEF80EC089500240A9458
:101210001616170618060906089500240A941216D1
:101220001306140605060895092E0394000C11F404
:10123000882352F0BB0F40F4BF2B11F460FF04C0B1
:101240006F5F7F4F8F4F9F4F089557FD9058440F0A
:10125000551F59F05F3F71F04795880F97FB991F15
:1012600061F09F3F79F087950895121613061406D2
:10127000551FF2CF4695F1DF08C01616170618065F
:10128000991FF1CF86957105610508940895E8943A
:10129000BB2766277727CB0197F908958ADF08F4E3
:1012A0008FEF08950BD0C0CFB1DF28F0B6DF18F074
:1012B000952309F0A2CFA7CF1124EACFC6DFA0F370
:1012C000959FD1F3950F50E0551F629FF001729FDB
:1012D000BB27F00DB11D639FAA27F00DB11DAA1FFA
:1012E000649F6627B00DA11D661F829F2227B00D47
:1012F000A11D621F739FB00DA11D621F839FA00DD2
:10130000611D221F749F3327A00D611D231F849F21
:10131000600D211D822F762F6A2F11249F57504078
:101320008AF0E1F088234AF0EE0FFF1FBB1F661F13
:10133000771F881F91505040A9F79E3F510570F0CC
:101340005CCFA6CF5F3FECF3983EDCF386957795B4
:101350006795B795F795E7959F5FC1F7FE2B880FC7
:10136000911D9695879597F9089523DF880B990B22
:101370000895A1E21A2EAA1BBB1BFD010DC0AA1FD6
:10138000BB1FEE1FFF1FA217B307E407F50720F0EE
:10139000A21BB30BE40BF50B661F771F881F991F69
:1013A0001A9469F760957095809590959B01AC01B2
:1013B000BD01CF010895EE0FFF1F0590F491E02DC0
:1013C0000994FB01DC0104C08D910190801921F486
:1013D00041505040C8F7881B990B0895F999FECFEA
:1013E00092BD81BDF89A992780B50895262FF99965
:1013F000FECF1FBA92BD81BD20BD0FB6F894FA9AF8
:0C140000F99A0FBE01960895F894FFCFF2
:10140C000A0A2A2A2A2A2A2A2A2A2A2A2A2A2A2A70
:10141C002A2A2A2A2A0A0A005374617274696E678E
:10142C002056616C75650061667465722053617637
:10143C0065006166746572205365744761696E73EB
:10144C000061667465722052657365744761696EDC
:10145C0073006166746572205365744B702C205355
:10146C0065744B6400616674657220536176652007
:10147C00616E642052657365744761696E73000018
:10148C0000000012048E059403AD039F03F0036E5D
:0E149C00616E00696E66006F7666002E0000BD
:00000001FF
